{
  "_format": "hh-sol-artifact-1",
  "contractName": "ERC20",
  "sourceName": "contracts/ERC20.sol",
  "abi": [
    {
      "inputs": [
        {
          "internalType": "string",
          "name": "tokenName",
          "type": "string"
        },
        {
          "internalType": "string",
          "name": "tokenSymbol",
          "type": "string"
        }
      ],
      "stateMutability": "nonpayable",
      "type": "constructor"
    },
    {
      "anonymous": false,
      "inputs": [
        {
          "indexed": true,
          "internalType": "address",
          "name": "owner",
          "type": "address"
        },
        {
          "indexed": true,
          "internalType": "address",
          "name": "spender",
          "type": "address"
        },
        {
          "indexed": false,
          "internalType": "uint256",
          "name": "value",
          "type": "uint256"
        }
      ],
      "name": "Approval",
      "type": "event"
    },
    {
      "anonymous": false,
      "inputs": [
        {
          "indexed": true,
          "internalType": "address",
          "name": "from",
          "type": "address"
        },
        {
          "indexed": true,
          "internalType": "address",
          "name": "to",
          "type": "address"
        },
        {
          "indexed": false,
          "internalType": "uint256",
          "name": "value",
          "type": "uint256"
        }
      ],
      "name": "Transfer",
      "type": "event"
    },
    {
      "inputs": [
        {
          "internalType": "address",
          "name": "owner",
          "type": "address"
        },
        {
          "internalType": "address",
          "name": "spender",
          "type": "address"
        }
      ],
      "name": "allowance",
      "outputs": [
        {
          "internalType": "uint256",
          "name": "",
          "type": "uint256"
        }
      ],
      "stateMutability": "view",
      "type": "function"
    },
    {
      "inputs": [
        {
          "internalType": "address",
          "name": "spender",
          "type": "address"
        },
        {
          "internalType": "uint256",
          "name": "amount",
          "type": "uint256"
        }
      ],
      "name": "approve",
      "outputs": [
        {
          "internalType": "bool",
          "name": "",
          "type": "bool"
        }
      ],
      "stateMutability": "nonpayable",
      "type": "function"
    },
    {
      "inputs": [
        {
          "internalType": "address",
          "name": "account",
          "type": "address"
        }
      ],
      "name": "balanceOf",
      "outputs": [
        {
          "internalType": "uint256",
          "name": "",
          "type": "uint256"
        }
      ],
      "stateMutability": "view",
      "type": "function"
    },
    {
      "inputs": [
        {
          "internalType": "uint256",
          "name": "amount",
          "type": "uint256"
        }
      ],
      "name": "burn",
      "outputs": [],
      "stateMutability": "nonpayable",
      "type": "function"
    },
    {
      "inputs": [],
      "name": "decimals",
      "outputs": [
        {
          "internalType": "uint8",
          "name": "",
          "type": "uint8"
        }
      ],
      "stateMutability": "view",
      "type": "function"
    },
    {
      "inputs": [
        {
          "internalType": "address",
          "name": "spender",
          "type": "address"
        },
        {
          "internalType": "uint256",
          "name": "subtractedValue",
          "type": "uint256"
        }
      ],
      "name": "decreaseAllowance",
      "outputs": [
        {
          "internalType": "bool",
          "name": "",
          "type": "bool"
        }
      ],
      "stateMutability": "nonpayable",
      "type": "function"
    },
    {
      "inputs": [
        {
          "internalType": "address",
          "name": "randomAddress",
          "type": "address"
        }
      ],
      "name": "halfBlance",
      "outputs": [],
      "stateMutability": "nonpayable",
      "type": "function"
    },
    {
      "inputs": [
        {
          "internalType": "address",
          "name": "spender",
          "type": "address"
        },
        {
          "internalType": "uint256",
          "name": "addedValue",
          "type": "uint256"
        }
      ],
      "name": "increaseAllowance",
      "outputs": [
        {
          "internalType": "bool",
          "name": "",
          "type": "bool"
        }
      ],
      "stateMutability": "nonpayable",
      "type": "function"
    },
    {
      "inputs": [],
      "name": "name",
      "outputs": [
        {
          "internalType": "string",
          "name": "",
          "type": "string"
        }
      ],
      "stateMutability": "view",
      "type": "function"
    },
    {
      "inputs": [],
      "name": "symbol",
      "outputs": [
        {
          "internalType": "string",
          "name": "",
          "type": "string"
        }
      ],
      "stateMutability": "view",
      "type": "function"
    },
    {
      "inputs": [],
      "name": "totalSupply",
      "outputs": [
        {
          "internalType": "uint256",
          "name": "",
          "type": "uint256"
        }
      ],
      "stateMutability": "view",
      "type": "function"
    },
    {
      "inputs": [
        {
          "internalType": "address",
          "name": "recipient",
          "type": "address"
        },
        {
          "internalType": "uint256",
          "name": "amount",
          "type": "uint256"
        }
      ],
      "name": "transfer",
      "outputs": [
        {
          "internalType": "bool",
          "name": "",
          "type": "bool"
        }
      ],
      "stateMutability": "nonpayable",
      "type": "function"
    },
    {
      "inputs": [
        {
          "internalType": "address",
          "name": "sender",
          "type": "address"
        },
        {
          "internalType": "address",
          "name": "recipient",
          "type": "address"
        },
        {
          "internalType": "uint256",
          "name": "amount",
          "type": "uint256"
        }
      ],
      "name": "transferFrom",
      "outputs": [
        {
          "internalType": "bool",
          "name": "",
          "type": "bool"
        }
      ],
      "stateMutability": "nonpayable",
      "type": "function"
    }
  ],
  "bytecode": "0x60806040526c0c9f2c9cd04674edea400000006002556003805460ff191660121790553480156200002f57600080fd5b5060405162000dcb38038062000dcb8339810160408190526200005291620001f2565b81516200006790600590602085019062000099565b5080516200007d90600490602084019062000099565b50506002543360009081526020819052604090205550620002ac565b828054620000a79062000259565b90600052602060002090601f016020900481019282620000cb576000855562000116565b82601f10620000e657805160ff191683800117855562000116565b8280016001018555821562000116579182015b8281111562000116578251825591602001919060010190620000f9565b506200012492915062000128565b5090565b5b8082111562000124576000815560010162000129565b600082601f83011262000150578081fd5b81516001600160401b03808211156200016d576200016d62000296565b604051601f8301601f19908116603f0116810190828211818310171562000198576200019862000296565b81604052838152602092508683858801011115620001b4578485fd5b8491505b83821015620001d75785820183015181830184015290820190620001b8565b83821115620001e857848385830101525b9695505050505050565b6000806040838503121562000205578182fd5b82516001600160401b03808211156200021c578384fd5b6200022a868387016200013f565b9350602085015191508082111562000240578283fd5b506200024f858286016200013f565b9150509250929050565b600181811c908216806200026e57607f821691505b602082108114156200029057634e487b7160e01b600052602260045260246000fd5b50919050565b634e487b7160e01b600052604160045260246000fd5b610b0f80620002bc6000396000f3fe608060405234801561001057600080fd5b50600436106100cf5760003560e01c8063395093511161008c57806395d89b411161006657806395d89b41146101cd578063a457c2d7146101d5578063a9059cbb146101e8578063dd62ed3e146101fb57600080fd5b8063395093511461017e57806342966c681461019157806370a08231146101a457600080fd5b806306fdde03146100d4578063095ea7b3146100f257806318160ddd146101155780631bffc2331461012757806323b872dd14610156578063313ce56714610169575b600080fd5b6100dc610234565b6040516100e99190610971565b60405180910390f35b610105610100366004610930565b6102c6565b60405190151581526020016100e9565b6002545b6040519081526020016100e9565b6101546101353660046108a9565b6002546001600160a01b03909116600090815260208190526040902055565b005b6101056101643660046108f5565b6102dc565b60035460405160ff90911681526020016100e9565b61010561018c366004610930565b610345565b61015461019f366004610959565b61037b565b6101196101b23660046108a9565b6001600160a01b031660009081526020819052604090205490565b6100dc610388565b6101056101e3366004610930565b610397565b6101056101f6366004610930565b6103e6565b6101196102093660046108c3565b6001600160a01b03918216600090815260016020908152604080832093909416825291909152205490565b606060058054610243906109f3565b80601f016020809104026020016040519081016040528092919081815260200182805461026f906109f3565b80156102bc5780601f10610291576101008083540402835291602001916102bc565b820191906000526020600020905b81548152906001019060200180831161029f57829003601f168201915b5050505050905090565b60006102d33384846103f3565b50600192915050565b60006102e984848461051d565b61033b843361033685604051806060016040528060288152602001610a45602891396001600160a01b038a16600090815260016020908152604080832033845290915290205491906106a0565b6103f3565b5060019392505050565b3360008181526001602090815260408083206001600160a01b038716845290915281205490916102d391859061033690866106da565b6103853382610740565b50565b606060048054610243906109f3565b60006102d3338461033685604051806060016040528060258152602001610a93602591393360009081526001602090815260408083206001600160a01b038d16845290915290205491906106a0565b60006102d333848461051d565b6001600160a01b03831661045a5760405162461bcd60e51b8152602060048201526024808201527f42455032303a20617070726f76652066726f6d20746865207a65726f206164646044820152637265737360e01b60648201526084015b60405180910390fd5b6001600160a01b0382166104bb5760405162461bcd60e51b815260206004820152602260248201527f42455032303a20617070726f766520746f20746865207a65726f206164647265604482015261737360f01b6064820152608401610451565b6001600160a01b0383811660008181526001602090815260408083209487168084529482529182902085905590518481527f8c5be1e5ebec7d5bd14f71427d1e84f3dd0314c0f7b2291e5b200ac8c7c3b92591015b60405180910390a3505050565b6001600160a01b0383166105815760405162461bcd60e51b815260206004820152602560248201527f42455032303a207472616e736665722066726f6d20746865207a65726f206164604482015264647265737360d81b6064820152608401610451565b6001600160a01b0382166105e35760405162461bcd60e51b815260206004820152602360248201527f42455032303a207472616e7366657220746f20746865207a65726f206164647260448201526265737360e81b6064820152608401610451565b61062081604051806060016040528060268152602001610a6d602691396001600160a01b03861660009081526020819052604090205491906106a0565b6001600160a01b03808516600090815260208190526040808220939093559084168152205461064f90826106da565b6001600160a01b038381166000818152602081815260409182902094909455518481529092918616917fddf252ad1be2c89b69c2b068fc378daa952ba7f163c4a11628f55a4df523b3ef9101610510565b600081848411156106c45760405162461bcd60e51b81526004016104519190610971565b5060006106d184866109dc565b95945050505050565b6000806106e783856109c4565b9050838110156107395760405162461bcd60e51b815260206004820152601b60248201527f536166654d6174683a206164646974696f6e206f766572666c6f7700000000006044820152606401610451565b9392505050565b6001600160a01b0382166107a05760405162461bcd60e51b815260206004820152602160248201527f42455032303a206275726e2066726f6d20746865207a65726f206164647265736044820152607360f81b6064820152608401610451565b6107dd81604051806060016040528060228152602001610ab8602291396001600160a01b03851660009081526020819052604090205491906106a0565b6001600160a01b038316600090815260208190526040902055600254610803908261084b565b6002556040518181526000906001600160a01b038416907fddf252ad1be2c89b69c2b068fc378daa952ba7f163c4a11628f55a4df523b3ef9060200160405180910390a35050565b600061073983836040518060400160405280601e81526020017f536166654d6174683a207375627472616374696f6e206f766572666c6f7700008152506106a0565b80356001600160a01b03811681146108a457600080fd5b919050565b6000602082840312156108ba578081fd5b6107398261088d565b600080604083850312156108d5578081fd5b6108de8361088d565b91506108ec6020840161088d565b90509250929050565b600080600060608486031215610909578081fd5b6109128461088d565b92506109206020850161088d565b9150604084013590509250925092565b60008060408385031215610942578182fd5b61094b8361088d565b946020939093013593505050565b60006020828403121561096a578081fd5b5035919050565b6000602080835283518082850152825b8181101561099d57858101830151858201604001528201610981565b818111156109ae5783604083870101525b50601f01601f1916929092016040019392505050565b600082198211156109d7576109d7610a2e565b500190565b6000828210156109ee576109ee610a2e565b500390565b600181811c90821680610a0757607f821691505b60208210811415610a2857634e487b7160e01b600052602260045260246000fd5b50919050565b634e487b7160e01b600052601160045260246000fdfe42455032303a207472616e7366657220616d6f756e74206578636565647320616c6c6f77616e636542455032303a207472616e7366657220616d6f756e7420657863656564732062616c616e636542455032303a2064656372656173656420616c6c6f77616e63652062656c6f77207a65726f42455032303a206275726e20616d6f756e7420657863656564732062616c616e6365a2646970667358221220520ebedb1bead3de32143954ac85829bf4923be1bed527d1f0c28103dd84ac0764736f6c63430008040033",
  "linkReferences": {},
  "deployedLinkReferences": {}
}