{
  "_format": "hh-sol-artifact-1",
  "contractName": "Presale",
  "sourceName": "contracts/presale.sol",
  "abi": [
    {
      "inputs": [
        {
          "internalType": "address",
          "name": "_tokenAddress",
          "type": "address"
        },
        {
          "internalType": "address",
          "name": "_adminWallet",
          "type": "address"
        },
        {
          "components": [
            {
              "internalType": "uint256",
              "name": "vestingPrice",
              "type": "uint256"
            },
            {
              "internalType": "uint256",
              "name": "vestingPeriod",
              "type": "uint256"
            },
            {
              "internalType": "uint256",
              "name": "price",
              "type": "uint256"
            }
          ],
          "internalType": "struct Presale.Terms",
          "name": "_terms",
          "type": "tuple"
        }
      ],
      "stateMutability": "nonpayable",
      "type": "constructor"
    },
    {
      "anonymous": false,
      "inputs": [
        {
          "indexed": false,
          "internalType": "address",
          "name": "to",
          "type": "address"
        },
        {
          "indexed": false,
          "internalType": "uint256",
          "name": "amount",
          "type": "uint256"
        }
      ],
      "name": "Buy",
      "type": "event"
    },
    {
      "anonymous": false,
      "inputs": [
        {
          "indexed": true,
          "internalType": "address",
          "name": "previousOwner",
          "type": "address"
        },
        {
          "indexed": true,
          "internalType": "address",
          "name": "newOwner",
          "type": "address"
        }
      ],
      "name": "OwnershipTransferred",
      "type": "event"
    },
    {
      "stateMutability": "payable",
      "type": "fallback"
    },
    {
      "inputs": [],
      "name": "buy",
      "outputs": [],
      "stateMutability": "payable",
      "type": "function"
    },
    {
      "inputs": [
        {
          "internalType": "uint256",
          "name": "amount",
          "type": "uint256"
        }
      ],
      "name": "claimETH",
      "outputs": [],
      "stateMutability": "nonpayable",
      "type": "function"
    },
    {
      "inputs": [
        {
          "internalType": "address",
          "name": "tokenAddress",
          "type": "address"
        },
        {
          "internalType": "uint256",
          "name": "amount",
          "type": "uint256"
        }
      ],
      "name": "claimToken",
      "outputs": [],
      "stateMutability": "nonpayable",
      "type": "function"
    },
    {
      "inputs": [],
      "name": "getPrice",
      "outputs": [
        {
          "internalType": "uint256",
          "name": "tokenPrice",
          "type": "uint256"
        }
      ],
      "stateMutability": "view",
      "type": "function"
    },
    {
      "inputs": [],
      "name": "owner",
      "outputs": [
        {
          "internalType": "address",
          "name": "",
          "type": "address"
        }
      ],
      "stateMutability": "view",
      "type": "function"
    },
    {
      "inputs": [],
      "name": "renounceOwnership",
      "outputs": [],
      "stateMutability": "nonpayable",
      "type": "function"
    },
    {
      "inputs": [
        {
          "components": [
            {
              "internalType": "uint256",
              "name": "vestingPrice",
              "type": "uint256"
            },
            {
              "internalType": "uint256",
              "name": "vestingPeriod",
              "type": "uint256"
            },
            {
              "internalType": "uint256",
              "name": "price",
              "type": "uint256"
            }
          ],
          "internalType": "struct Presale.Terms",
          "name": "_terms",
          "type": "tuple"
        }
      ],
      "name": "resetTerms",
      "outputs": [],
      "stateMutability": "nonpayable",
      "type": "function"
    },
    {
      "inputs": [
        {
          "internalType": "address",
          "name": "_adminWallet",
          "type": "address"
        }
      ],
      "name": "setAdminWallet",
      "outputs": [],
      "stateMutability": "nonpayable",
      "type": "function"
    },
    {
      "inputs": [],
      "name": "startTime",
      "outputs": [
        {
          "internalType": "uint256",
          "name": "",
          "type": "uint256"
        }
      ],
      "stateMutability": "view",
      "type": "function"
    },
    {
      "inputs": [],
      "name": "terms",
      "outputs": [
        {
          "internalType": "uint256",
          "name": "vestingPrice",
          "type": "uint256"
        },
        {
          "internalType": "uint256",
          "name": "vestingPeriod",
          "type": "uint256"
        },
        {
          "internalType": "uint256",
          "name": "price",
          "type": "uint256"
        }
      ],
      "stateMutability": "view",
      "type": "function"
    },
    {
      "inputs": [],
      "name": "tokenAddress",
      "outputs": [
        {
          "internalType": "address",
          "name": "",
          "type": "address"
        }
      ],
      "stateMutability": "view",
      "type": "function"
    },
    {
      "inputs": [
        {
          "internalType": "address",
          "name": "newOwner",
          "type": "address"
        }
      ],
      "name": "transferOwnership",
      "outputs": [],
      "stateMutability": "nonpayable",
      "type": "function"
    },
    {
      "stateMutability": "payable",
      "type": "receive"
    }
  ],
  "bytecode": "0x608060405234801561001057600080fd5b50604051610b99380380610b9983398101604081905261002f916100d9565b600080546001600160a01b031916339081178255604051909182917f8be0079c531659141344cd1fd0a4f28419497f9722a3daafe3b4186f6b6457e0908290a350600480546001600160a01b039485166001600160a01b0319918216179091556005805493909416921691909117909155805160015560208101516002556040015160035542600655610172565b80516001600160a01b03811681146100d457600080fd5b919050565b600080600083850360a08112156100ee578384fd5b6100f7856100bd565b9350610105602086016100bd565b92506060603f1982011215610118578182fd5b50604051606081016001600160401b038111828210171561014757634e487b7160e01b83526041600452602483fd5b8060405250604085015181526060850151602082015260808501516040820152809150509250925092565b610a18806101816000396000f3fe6080604052600436106100ab5760003560e01c80639d76ea58116100645780639d76ea5814610187578063a6f2ae3a146100ba578063d5025625146101a7578063df04c6ef146101e1578063f2fde38b14610201578063fe96973a14610221576100ba565b80631698755f146100c257806335082933146100e2578063715018a61461010257806378e97925146101175780638da5cb5b1461014057806398d5fdca14610172576100ba565b366100ba576100b8610241565b005b6100b8610241565b3480156100ce57600080fd5b506100b86100dd366004610847565b6103fe565b3480156100ee57600080fd5b506100b86100fd366004610826565b6104ce565b34801561010e57600080fd5b506100b861051a565b34801561012357600080fd5b5061012d60065481565b6040519081526020015b60405180910390f35b34801561014c57600080fd5b506000546001600160a01b03165b6040516001600160a01b039091168152602001610137565b34801561017e57600080fd5b5061012d61058e565b34801561019357600080fd5b5060045461015a906001600160a01b031681565b3480156101b357600080fd5b506001546002546003546101c692919083565b60408051938452602084019290925290820152606001610137565b3480156101ed57600080fd5b506100b86101fc366004610890565b6105a8565b34801561020d57600080fd5b506100b861021c366004610826565b6105e8565b34801561022d57600080fd5b506100b861023c3660046108f7565b61061e565b610275604051806040016040528060138152602001723132b337b93290313abc90333ab731ba34b7b760691b8152506106e6565b6000620f424061028361058e565b61028d90346109b7565b6102979190610997565b6004805460405163a9059cbb60e01b81523392810192909252602482018390529192506001600160a01b039091169063a9059cbb90604401602060405180830381600087803b1580156102e957600080fd5b505af11580156102fd573d6000803e3d6000fd5b505050506040513d601f19601f820116820180604052508101906103219190610870565b50600080546040516001600160a01b039091169034908381818185875af1925050503d806000811461036f576040519150601f19603f3d011682016040523d82523d6000602084013e610374565b606091505b50509050806103c15760405162461bcd60e51b81526020600482015260146024820152732330b4b632b2103a379039b2b7321022ba3432b960611b60448201526064015b60405180910390fd5b60408051338152602081018490527fe3d4187f6ca4248660cc0ac8b8056515bac4a8132be2eca31d6d0cc170722a7e910160405180910390a15050565b6000546001600160a01b031633146104285760405162461bcd60e51b81526004016103b890610962565b816001600160a01b031663a9059cbb6104496000546001600160a01b031690565b6040516001600160e01b031960e084901b1681526001600160a01b03909116600482015260248101849052604401602060405180830381600087803b15801561049157600080fd5b505af11580156104a5573d6000803e3d6000fd5b505050506040513d601f19601f820116820180604052508101906104c99190610870565b505050565b6000546001600160a01b031633146104f85760405162461bcd60e51b81526004016103b890610962565b600580546001600160a01b0319166001600160a01b0392909216919091179055565b6000546001600160a01b031633146105445760405162461bcd60e51b81526004016103b890610962565b600080546040516001600160a01b03909116907f8be0079c531659141344cd1fd0a4f28419497f9722a3daafe3b4186f6b6457e0908390a3600080546001600160a01b0319169055565b60025460009042116105a1575060015490565b5060035490565b6000546001600160a01b031633146105d25760405162461bcd60e51b81526004016103b890610962565b8051600155602081015160025560400151600355565b6000546001600160a01b031633146106125760405162461bcd60e51b81526004016103b890610962565b61061b81610729565b50565b6000546001600160a01b031633146106485760405162461bcd60e51b81526004016103b890610962565b600080546040516001600160a01b039091169083908381818185875af1925050503d8060008114610695576040519150601f19603f3d011682016040523d82523d6000602084013e61069a565b606091505b50509050806106e25760405162461bcd60e51b81526020600482015260146024820152732330b4b632b2103a379039b2b7321022ba3432b960611b60448201526064016103b8565b5050565b61061b816040516024016106fa919061090f565b60408051601f198184030181529190526020810180516001600160e01b031663104c13eb60e21b1790526107e9565b6001600160a01b03811661078e5760405162461bcd60e51b815260206004820152602660248201527f4f776e61626c653a206e6577206f776e657220697320746865207a65726f206160448201526564647265737360d01b60648201526084016103b8565b600080546040516001600160a01b03808516939216917f8be0079c531659141344cd1fd0a4f28419497f9722a3daafe3b4186f6b6457e091a3600080546001600160a01b0319166001600160a01b0392909216919091179055565b80516a636f6e736f6c652e6c6f67602083016000808483855afa5050505050565b80356001600160a01b038116811461082157600080fd5b919050565b600060208284031215610837578081fd5b6108408261080a565b9392505050565b60008060408385031215610859578081fd5b6108628361080a565b946020939093013593505050565b600060208284031215610881578081fd5b81518015158114610840578182fd5b6000606082840312156108a1578081fd5b6040516060810181811067ffffffffffffffff821117156108d057634e487b7160e01b83526041600452602483fd5b80604052508235815260208301356020820152604083013560408201528091505092915050565b600060208284031215610908578081fd5b5035919050565b6000602080835283518082850152825b8181101561093b5785810183015185820160400152820161091f565b8181111561094c5783604083870101525b50601f01601f1916929092016040019392505050565b6020808252818101527f4f776e61626c653a2063616c6c6572206973206e6f7420746865206f776e6572604082015260600190565b6000826109b257634e487b7160e01b81526012600452602481fd5b500490565b60008160001904831182151516156109dd57634e487b7160e01b81526011600452602481fd5b50029056fea26469706673582212206fa59b2f84c0432056dddec3bfddc6b3448fd2078818b7cb5efe32b2ecb45c6364736f6c63430008040033",
  "linkReferences": {},
  "deployedLinkReferences": {}
}